:020000040000FA
:100000003812001079010000CD030000BD0300008C
:10001000C5030000330200005913000074CBFFEF4A
:100020000000000000000000000000008B01000044
:100030008D010000000000008F0100009101000010
:100040009301000093010000930100009301000060
:1000500093010000D10D0000930100009301000006
:100060009301000093010000930100009301000040
:100070009301000093010000930100009301000030
:100080009301000093010000930100009301000020
:100090009301000093010000930100009301000010
:1000A0009301000093010000930100009301000000
:1000B00093010000930100009301000093010000F0
:1000C00093010000930100009301000000F002F88A
:1000D00000F03AF80AA090E8000C82448344AAF1A8
:1000E0000107DA4501D100F02FF8AFF2090EBAE8A6
:1000F0000F0013F0010F18BFFB1A43F0010318475C
:10010000282F0000482F0000103A24BF78C878C17B
:10011000FAD8520724BF30C830C144BF04680C600D
:10012000704700000023002400250026103A28BF55
:1001300078C1FBD8520728BF30C148BF0B60704759
:100140001FB51FBD10B510BD00F039F81146FFF7FF
:10015000F7FF02F04BFB00F057F803B4FFF7F2FF94
:1001600003BC00F05FF8000040BA7047C0BA7047A7
:10017000D0F800D0D0F804F009488047094800477B
:10018000FEE7FEE7FEE7FEE7FEE7FEE7FEE7FEE747
:10019000FEE7FEE704480549054A064B70470000A4
:1001A000990C0000CD000000380900103812001032
:1001B000380A0010380A00107047704770477546BB
:1001C00000F02CF8AE4605006946534620F00700C3
:1001D000854618B020B5FFF7DDFFBDE820404FF0A1
:1001E00000064FF000074FF000084FF0000B21F021
:1001F0000701AC46ACE8C009ACE8C009ACE8C009EE
:10020000ACE8C0098D46704710B50446AFF30080D6
:100210002046BDE81040FFF7A0BF0000004870472F
:10022000D808001001491820ABBEFEE726000200E6
:10023000704700BF00BF00BFFEE770B504460D4623
:100240002946204600F013F870BD70B504460D46EF
:10025000164632462946204600F030F870BD70B58B
:1002600004460D462946204600F03CF870BD70B5A6
:1002700006460C46304600F005F8054605B1EC612F
:1002800070BD000001460020052912D2DFE801F010
:100290000305080B0E0008480CE00748203009E071
:1002A0000548403006E00448603003E002488030F2
:1002B00000E000BF00BF704700C009202DE9F041F9
:1002C00007460D4616463846FFF7DCFF04463CB1AC
:1002D0001EB120682843206002E02068A843206007
:1002E000BDE8F08170B506460C463046FFF7CAFF00
:1002F000054605B1AC6170BD00000000FFFFFFFFC7
:1003000010B5044604F01F02012000FA02F1C4F304
:100310004210FFF792FF10BD10B50446204600F0D2
:1003200029F810BD10B504460021204600F014F84D
:1003300010BD10B504460121204600F00DF810BD97
:1003400010B5044604F01F02012000FA02F1C4F3C4
:100350004210FFF784FF10BD70B504460D4604F04F
:100360001F02012000FA02F12A46C4F34210FFF7EF
:100370006CFF70BD1CB5044600208DF802008DF89E
:1003800004008DF80300C4F342108DF8000004F05F
:100390001F008DF80100684600F028F81CBD70B5FC
:1003A00005460C462846FFF7C4FF1CB12846FFF758
:1003B000C7FF02E02846FFF7A3FF70BD00BF00BFE4
:1003C00000BFFEE700BF00BF00BFFEE700BF00BFE9
:1003D00000BFFEE700F01F0201219140024A4309DD
:1003E00042F823107047000080E100E010B5044699
:1003F000A2786178207802F06DFCE278617820784C
:1004000002F088FC22796178207802F04BFC10BD64
:100410002DE9F04105460C461E48B0F90000FFF7F3
:100420006FFFE9B241F0400000F016FC200E00F032
:1004300013FCC4F3074000F00FFCC4F3072000F0E6
:100440000BFCE0B200F008FC952000F005FC002653
:1004500012E0FF2000F000FC074607F0800050B9D2
:100460000C48B0F90000FFF76BFFFF2000F0F4FB31
:100470003846BDE8F081761CB6F5805FE9DB0548BB
:10048000B0F90000FFF75CFFFF2000F0E5FB4FF044
:10049000FF30EEE7140000102DE9F04104462A4831
:1004A000B0F90000FFF72CFF00257A2000F0D4FB04
:1004B000281600F0D1FB280C00F0CEFB280A00F033
:1004C000CBFB284600F0C8FB952000F0C5FB0026BA
:1004D0002BE0FF2000F0C0FB074607F0800018BBB0
:1004E000FF2000F0B9FB00062060FF2000F0B4FB05
:1004F000216841EA00402060FF2000F0ADFB216848
:1005000041EA00202060FF2000F0A6FB216808439C
:1005100020600D48B0F90000FFF712FFFF2000F047
:100520009BFB3846BDE8F081761CB6F5805FD0DBDA
:100530000548B0F90000FFF703FFFF2000F08CFB37
:100540004FF0FF30EEE70000140000107CB52348A8
:10055000B0F90000FFF7D4FE482000F07DFB00203A
:1005600000F07AFB002000F077FB012000F074FB24
:10057000AA2000F071FB872000F06EFB00251FE031
:10058000FF2000F069FB8DF800009DF8000000F0EE
:100590008000A0B9012405E0FF2000F05DFB0DF80C
:1005A0000400641C052CF7DB0C48B0F90000FFF7D1
:1005B000C7FEFF2000F050FB9DF800007CBD6D1CC5
:1005C000B5F57A1FDCDB0548B0F90000FFF7B8FE8F
:1005D000FF2000F041FB4FF0FF30EFE71400001068
:1005E0002DE9F04105460C461A48B0F90000FFF726
:1005F00087FEE9B241F0400000F02EFB200E00F033
:100600002BFBC4F3074000F027FBC4F3072000F0E6
:1006100023FBE0B200F020FB952000F01DFB00263C
:100620000AE0FF2000F018FB074607F0800010B931
:100630003846BDE8F081761CB6F5805FF1DB0548F1
:10064000B0F90000FFF77CFEFF2000F005FB4FF043
:10065000FF30EEE71400001070B505460E46124854
:10066000B0F90000FFF74CFE00BFFF2000F0F4FAE5
:10067000FE28FAD1002404E0FF2000F0EDFA28550E
:10068000641CB442F8DBFF2000F0E6FAFF2000F023
:10069000E3FA0548B0F90000FFF752FEFF2000F032
:1006A000DBFA002070BD0000140000102DE9FF47A8
:1006B00000210920FFF794FF28B100BF00BF0020F0
:1006C00004B0BDE8F08710216846FFF7C5FF18B1F8
:1006D00000BF00BF0020F3E77E227F21684601F0C3
:1006E0009FFC044664BB21480068032801D1002018
:1006F000E6E73E224921684601F092FC81462F221E
:100700003121684601F08CFC804650225321684616
:1007100001F086FC0646012101FA06F508F1020007
:1007200001FA00FA09F1010000FB0AF7B5F5007FB4
:1007300002D3680A7843C3E707FB05F0400ABFE726
:10074000012C0FD109480068032801D00020B7E729
:1007500030224521684601F063FC0546681C86028C
:100760003046ADE700BF00BF0020A9E72000001021
:1007700070B505460E461B48B0F90000FFF7C0FDF6
:10078000FE2000F069FA002403E0285D00F064FA1E
:10079000641CB442F9DBFF2000F05EFAFF2000F099
:1007A0005BFAFF2000F058FA00F01F00052809D07E
:1007B0000C48B0F90000FFF7C3FDFF2000F04CFA31
:1007C000012070BD00BFFF2000F046FA0028FAD0DB
:1007D0000448B0F90000FFF7B3FDFF2000F03CFA39
:1007E0000020EEE7140000104FF400707047000086
:1007F00010B500200D49086000F08EF804460CB9D1
:10080000012010BDFFF752FF084908604FF4007146
:100810001020FFF7FDFD18B100BF00BF0120F0E779
:10082000034800F0F1F80020EBE700001000001092
:1008300000093D0070B505460C460F4800680128C8
:1008400003D00D480068022801D1600206E00A4882
:100850000068032801D1204600E000200146112055
:10086000FFF7D6FD08B1012070BD4FF40071284696
:10087000FFF7F2FE0020F7E72000001001480068B3
:1008800070470000100000100348006808B90120FC
:1008900070470020FCE700001000001070B505460E
:1008A0000C460F480068012803D00D480068022854
:1008B00001D1600206E00A480068032801D1204601
:1008C00000E0002001461820FFF7A2FD08B101203A
:1008D00070BD4FF400712846FFF74AFF0020F7E78C
:1008E000200000102DE9F04105460E4617461C4633
:1008F0003A463146284600F0DFF82046FFF70CFD67
:100900002046FFF716FD2046FFF71AFD0148048038
:10091000BDE8F0811400001070B546F2A81000F098
:1009200073F81648B0F90000FFF70AFD002503E050
:10093000FF2000F091F96D1C102DF9DB0021084615
:10094000FFF766FD012805D000BF00BF00200C495D
:10095000086070BDFFF7FAFD0446012C02D100F0DB
:100960002BF8F6E7052C02D100F00CF8F1E700BFF8
:1009700000BF002002490860EBE7000014000010EF
:100980002000001010B500240DE000213720FFF7F3
:100990003FFD00212920FFF73BFD18B90120054943
:1009A000086010BD641CB4F5805FEEDB00BF00BFC3
:1009B0000020F6E72000001038B5002419E00021DF
:1009C0003720FFF725FD4FF080412920FFF720FD5C
:1009D00070B96846FFF760FD009800F0804018B1DC
:1009E00003200849086038BD022006490860FAE77C
:1009F000641CB4F5805FE2DB00BF00BF002001494A
:100A00000860F0E7200000102749B1FBF0F1274A09
:100A1000116027490968002944D0B0F5C07F13D878
:100A2000FE21234A12681161214909680968C9B287
:100A30001F4A126811601E490968096841F47F4124
:100A40001B4A126811602DE01A4988420BD9022115
:100A5000174A12681161164909680968C9B2144A2F
:100A6000126811601EE01149097801F0FE01104A78
:100A7000126811610E4909680968C9B20C4A126806
:100A800011600B4909680969084A1268B2FBF1F163
:100A9000491EC9B2064A1268126842EA0121044A94
:100AA000126811607047000040787D01240000103A
:100AB0003000001020BCBE0070B504460D4616463E
:100AC00004F01F02012000FA02F10246C4F34210B2
:100AD000FFF7BBFB05F01F02012000FA02F1002224
:100AE000C5F34210FFF7B1FB06F01F02012000FA28
:100AF00002F10246C6F34210FFF7A7FB092C27D1EB
:100B0000082D25D1072E23D14C484D4908604D486A
:100B1000006820F47C204B4908600846006840F4D7
:100B2000282008604848006820F440104749C1F870
:100B3000A8010846D0F8A80140F48010C1F8A80127
:100B40000846D0F8C40040F48060C1F8C4005DE0FD
:100B5000122C32D1112D30D10F2E2ED13C483849D4
:100B600008603848006820F0404036490860084670
:100B7000006840F0004008600846406820F03C00F3
:100B800048600846406840F0280048602E48001D34
:100B9000006820F440602D49C1F8AC010846D0F847
:100BA000AC0140F48060C1F8AC010846D0F8C40044
:100BB00040F40010C1F8C40028E0382C23D1372DB0
:100BC00021D1342E1FD122481D4908601D48C0681C
:100BD000204908431B49C8601B48001D006820F4D9
:100BE00040601A49C1F8AC010846D0F8AC0140F4A5
:100BF0008060C1F8AC010846D0F8C40040F4001091
:100C0000C1F8C40002E000200D4908600C480068EB
:100C100098B107200A490968086000200849096856
:100C2000486042F21070FFF7EFFE05480068406828
:100C300040F0020002490968486070BD00000340AE
:100C40003000001000C00240A8C10F4000C00F409B
:100C50000080084000C30300014600200D4A1268CE
:100C6000B2B100BF0B4A1268D26802F00202002A39
:100C7000F8D0084A1268916000BF064A1268D2682C
:100C800002F00402002AF8D0024A12689268D0B238
:100C90007047000030000010202049490860494892
:100CA000D0F8A00100F0200030B100BF4448006837
:100CB00000F040000028F9D0032041499C39086029
:100CC00000204049C1F8A8013D490C3108600120CD
:100CD0003B499439086013203A4984310860AA20BE
:100CE00038498C3108605520086001203549803131
:100CF0000860AA2033498C31086055203149C1F879
:100D00008C0000BF2F488830006800F08060002809
:100D1000F8D003202B4980310860AA202949C1F866
:100D20008C00552027498C31086000BF2548883049
:100D3000006800F040700028F8D023202149A43139
:100D40000860AA201F49C1F8AC0055201D49AC31EC
:100D5000086001201B49A0310860AA201949AC3164
:100D6000086055201749C1F8AC0000BF1548A830ED
:100D7000006800F480600028F8D003201149A031F9
:100D80000860AA200F49C1F8AC0055200D49AC31CC
:100D9000086000BF0B48A830006800F440700028CD
:100DA000F8D009480749C431086000200549C1F856
:100DB000C80145F23A000860002004490860704705
:100DC000A0C10F4000C00F400884208008ED00E063
:100DD00010B500BF00BF00F07BF900BF00BF10BD21
:100DE0000146087D00F0400008B100207047012056
:100DF000FCE70146886840F2CF321040704700009F
:100E000001460348814201D1007D7047087DFCE71F
:100E10000000014030B50B460021072B15D2DFE85A
:100E200003F00406080A0C0E110001210DE0022156
:100E30000BE0042109E0082107E0802105E04FF4E0
:100E4000807102E04FF4007100BF00BF012A0AD197
:100E50000D4CA04203D144680C43446013E0446845
:100E60000C4344600FE0084CA04206D1446840F2B5
:100E70008F358D432C40446005E0446840F20735CF
:100E80008D432C40446030BD00000140FEB5064655
:100E900000206749087000BF66494860086000BFCD
:100EA00000BF65494860086000BF00900190029053
:100EB0006946304600F06CFA4FF0FF359DF80400AB
:100EC00030B1012806D0022806D0032806D106E05A
:100ED000012406E0022404E0002402E000BF032411
:100EE00000BF00BF5548006830B1012817D0022864
:100EF00028D003284CD138E05148006840F0080061
:100F00004F49C439C1F8C4004D48E430006820F0AE
:100F1000C00040EA8410C1F8A801052538E048481F
:100F2000006840F010004649C439C1F8C400444884
:100F3000E430006820F4407040EA0420C1F8A801C1
:100F4000062525E03E48006840F080703C49C439E1
:100F5000C1F8C4003A48E830006820F4403040EA64
:100F60000440C1F8AC01072512E03548006840F0A4
:100F700000703349C439C1F8C4003148E830006812
:100F800020F4402040EA8440C1F8AC01082500BFAD
:100F900000BF2C480068007B40F0800029490968A8
:100FA0000873BDF80600000A264909680871BDF8F3
:100FB000060024490968087022480068007B00F098
:100FC0007F002049096808739DF8080000F00F01B0
:100FD0009DF8090061F31F101A49096881F828007B
:100FE0000720184909680872032016490968087320
:100FF00000201449096881F824001248006890F81C
:10100000300040F080000F49096881F83000802DE1
:101010000CDA00BF05F01F01012088406909890032
:1010200001F1E021C1F8000100BF00BF3046FEBD64
:1010300038000010C8040010D00600103C0000105A
:10104000C4C00F403400001007480068007D00F065
:10105000400008B10020704704480068034949680F
:10106000401AC0F30800F6E734000010C80400106E
:1010700010B50E48006830B1012808D002280AD007
:10108000032810D10BE00520FFF7A4F90BE00620A0
:10109000FFF7A0F907E00720FFF79CF903E008201D
:1010A000FFF798F900BF00BF10BD00003C00001022
:1010B00000E000BFFDE770B505460E461446314618
:1010C000284600F027F82046FFF7E0FE70BD00003C
:1010D00070B50F480068FFF78CFE00F00E04062C78
:1010E0000AD10B480068FFF78BFE054605F09E0508
:1010F00015B1E8B2FFF7DCFF042C01D00C2C01D1B4
:1011000000F0ACF8022C01D100F0D6F870BD000060
:10111000340000107CB504460D4601204849087093
:1011200000208DF804008DF80300022D0AD1032C55
:1011300008D14449086044484449086001208DF8BA
:10114000020065E05DB9012C09D103203D4908602A
:101150003F483E49086002208DF8020058E00A2D01
:101160000BD10B2C09D10220364908603948374988
:10117000086001208DF802004AE00F2D0BD1102CE1
:1011800009D101202F490860334830490860012007
:101190008DF802003CE0192D0BD11A2C09D1032047
:1011A000284908602A482949086003208DF8020070
:1011B0002EE0402D0BD1412C09D10120214908609E
:1011C00025482249086002208DF8020020E0482DC1
:1011D0000BD1492C09D102201A4908601D481B492E
:1011E000086002208DF8020012E09C2D0BD19D2C8E
:1011F00009D10320134908601548144908600320E9
:101200008DF8020004E04FF0FF300E4908607CBD0D
:10121000C5F342108DF8000005F01F008DF80100A5
:101220006846FFF7E3F8C4F342108DF8000004F0BD
:101230001F008DF801006846FFF7D8F800BFE6E709
:10124000390000103C00001000C0004034000010C5
:1012500000C00940008009400000014010B524E0B2
:10126000134A1268117D01F00102EAB1104A1268B6
:101270001078104A5268C2F308030E4A1268521CD2
:10128000C2F30802934210D000BF0A4B1A68531CE5
:10129000084C236004F10803985422461268C2F3F4
:1012A0000802083B1A6000E000E0D9E700BF10BD6B
:1012B00034000010D006001010B500220121234890
:1012C0000068FFF7A7FD00BF20480068FFF788FD12
:1012D0000128F9D012E000BF1D494868411C1C4A92
:1012E000516002F10801095C184A1268117018482F
:1012F0004068C0F308001649486000BF1448006801
:10130000C0F3080012494968C1F308018842E2D1DC
:101310000F480068C0F308000D494968C1F308018F
:10132000884209D10022012108480068FFF772FDB8
:1013300000200849087008E00120064908700122D1
:10134000114602480068FFF765FD10BD340000102B
:10135000C80400103800001000BF00BF00BFFEE747
:101360004FF08040007820F004004FF0804108707A
:10137000704772B6AA20410708725520087262B6FB
:1013800070474FF080400078C0F380007047000045
:101390002DE9FC5F05460C460020019020603A488C
:1013A000854201D2032000E00120814667E0012050
:1013B00000FA09F035490968B1FBF0F00090012608
:1013C0004EE0002749E00198401C01902801B9191E
:1013D00048437100009A5143B1FBF0F0401C4FEAC2
:1013E0005008B8F5803F00D336E0B8F1000F01D1C6
:1013F0004FF0010827B1B8F1020F01D24FF00208F7
:1014000033463A464146009800F042F88246294663
:10141000504601F028FD83462946206801F023FD4F
:10142000834518D2C4F800A084F80490A4F806807C
:1014300026726772AA4502D10198BDE8FC9F294631
:10144000206801F010FD00EB40004002B0FBF5F019
:1014500008B90198F1E700BF7F1CB742B3D3761CEF
:10146000102EAED32946206801F0FDFCC821484368
:10147000B0FBF5F008B90198DFE7A9F10109B9F16E
:10148000040F94D30198D8E740420F0048000010A1
:1014900070B50446080150430002B0FBF3F606EBBA
:1014A00001356001B0FBF5F0C00070BD70B50446B9
:1014B0000D46607801232A4604F1300100F04FFD0B
:1014C00008B1032070BD94F82E1294F82F0241EA5F
:1014D00000204AF65521884201D00220F2E794F814
:1014E0006900010694F8680041EA004194F8670039
:1014F00041EA002094F86610084320F07F400E492E
:10150000884201D10020DDE794F88500010694F8B7
:10151000840041EA004194F8830041EA002094F8F5
:101520008210084320F07F400349884201D1002007
:10153000C8E70120C6E700004641540030B5ADF5CC
:10154000017D00BF00BF2649002000F093FD01226D
:1015500024480168244800F0A3FD051E3CD100BFCB
:1015600000BF4FF40070009044011CE06B464FF444
:10157000007201A91C4800F042FE28B11A4800F090
:101580006EFD0DF5017D30BDA4F58041C80B01F065
:10159000E1FB00BF00BF4FF4007201A9204601F03B
:1015A0009DFC009804440098B0F5007FDED00E4802
:1015B00000F055FDB4F5804F0DD900BF00BF0B48BA
:1015C000006800F0B2FF0090084801680548006814
:1015D00000F0DCFE009001E000BF00BF00BFD0E7DC
:1015E0004C000010000000107C02001004000010ED
:1015F000024600E0521C107810B110788842F9D1F0
:10160000107870472DE9F74F88B00898006801906E
:101610000198007830380790079809280AD801986F
:1016200040783A2806D10198801C019008990198C9
:10163000086001E0002007900021099801600798E8
:1016400018B10B200BB0BDE8F08FD049079851F8C6
:1016500020400CB90C20F5E709980460207878B197
:10166000607800F09BFC804608F0010040B90A98C1
:1016700020B108F0040008B10A20E3E70020E1E708
:101680000020207007986070607800F018FC804699
:1016900008F0010008B10320D4E70A9820B108F04F
:1016A000040008B10A20CDE74FF0000B5946204650
:1016B000FFF7FCFE054600BF012D21D14FF0000AC7
:1016C000BAF1000F03D0AAF1010000F0FF0A4FF4B5
:1016D000DF7000EB0A1104F130000F18387978B18F
:1016E000F87A0106B87A41EA0041787A41EA0020A6
:1016F000397A40EA010B59462046FFF7D7FE0546E6
:10170000032D01D101209DE70DB10D209AE73B206B
:10171000015D94F83C0041EA0020B0F5007F01D063
:101720000D208FE74620015D94F8470041EA00292B
:10173000B9F1000F0ED194F85700010694F8560045
:1017400041EA004194F8550041EA002094F8541011
:1017500040EA0109C4F81C904020065DE670012EA5
:1017600003D0022E01D00D206CE709FB06F93D20C5
:10177000005D0646A07016B1701E304008B10D2005
:1017800060E74120015D94F8420041EA0020208199
:10179000207A00F00F0008B10D2053E74320015DCF
:1017A00094F8440041EA00200690069870B994F835
:1017B0005300010694F8520041EA004194F85100A8
:1017C00041EA002094F85010084306903E20015D45
:1017D00094F83F0041EA00200290029808B90D20D9
:1017E00030E702984844218900EB11100590DDE9AB
:1017F0000501814201D20D2024E7DDE90510401AE0
:10180000A178B0FBF1F00490049808B90D2019E715
:10181000012540F6F6710498884200D302254FF660
:10182000F6710498884200D303250498801CA061B7
:1018300005985844A062029858442062032D16D19E
:10184000208908B10D20FDE694F85F00010694F8A8
:101850005E0041EA004194F85D0041EA002094F8FE
:101860005C1008436062A0698000039014E0208946
:1018700008B90D20E6E6206A48446062022D02D1D4
:10188000A069400007E0207E00F00100A16901EBA3
:10189000410100EB51000390E169039800F2FF1051
:1018A000B1EB502F01D20D20CCE64FF0FF3020617C
:1018B0000020E060032D5CD1607194F8601094F812
:1018C000610041EA0020584460616078012304F11E
:1018D0003001626900F043FBF0BB94F82E1294F8DB
:1018E0002F0241EA00204AF65521884241D1332097
:1018F000005D01063220005D41EA00413120005DBB
:1019000041EA002094F8301008432149884230D140
:1019100094F81702010694F8160241EA004194F87F
:10192000150241EA002094F814120843194988422C
:101930001FD194F81F02010694F81E0241EA0041EB
:1019400094F81D0241EA002094F81C120843E0605C
:1019500094F81B02010600E00BE094F81A0241EA39
:10196000004194F8190241EA002094F81812084343
:101970002061257008480088401C80B20649088014
:10198000E0800020E062207100BF5BE640000010B4
:101990005252614172724161440000100246891E38
:1019A0009069801E884201D8002070479378906A21
:1019B00001FB0300F9E72DE9F04704468946B9F138
:1019C000000F06D1E76817B1A069B84211D8012706
:1019D0000FE04946204600F078FE0646022E02D26D
:1019E0000120BDE8F087A069B04201D93046F8E790
:1019F0004F463D4600BF6D1CA069A84204D8022591
:101A0000BD4201D90020ECE72946204600F05DFEEA
:101A1000064606B909E0701C08B1012E01D1304616
:101A2000DFE7BD42E7D10020DBE700BF6FF0704287
:101A30002946204601F066F88046B8F1000F08D12B
:101A4000B9F1000F05D02A464946204601F05AF860
:101A50008046B8F1000F09D1E5602069401C68B1EB
:101A60002069401E20610120607107E0B8F1010F7C
:101A700002D14FF0FF3000E0012005462846B0E7D4
:101A80002DE9F35F8A46DAF8007000E07F1C3878B1
:101A90002F28FBD038785C28F8D0009886690B2274
:101AA0002021304600F076FF0025A946AB464FF0D6
:101AB000080800BF58460BF1010B3C5C202C03DDED
:101AC0002F2C01D05C2C00D136E02E2C01D0C1454A
:101AD0000ED3B8F1080F01D12E2C02D00620BDE89C
:101AE000FC9F4FF008094FF00B08A806050EE1E730
:101AF000802C05DB45F00305A4F1800023490C5C34
:101B0000214623A0FFF774FD08B10620E7E7412C2A
:101B100004DB5A2C02DC45F0020508E0612C06DBF0
:101B20007A2C04DC45F00105A4F12000C4B248463B
:101B300009F101093454BDE700BF07EB0B00CAF8F7
:101B40000000202C01DC042000E000200446B9F154
:101B5000000F01D10620C2E73078E52801D1052029
:101B60003070B8F1080F01D1A806050E05F003008A
:101B7000012801D144F0100405F00C00042801D123
:101B800044F00804F4720020A9E70000882F000048
:101B9000222A2B2C3A3B3C3D3E3F5B5D7C7F000084
:101BA0000CB501460020019004E0019800900198D6
:101BB000401C019001988842F7D300980CBD2DE994
:101BC000F04104460021204600F02BF9054615B1EE
:101BD0002846BDE8F08100BF2169206800F0E4FEDE
:101BE000054605B116E0666937780FB9042511E09E
:101BF000F07A00F0080030B90B223046A16900F0FD
:101C0000A9FE00B906E00021204600F006F80546CE
:101C1000002DE1D000BF2846DBE72DE9F041044666
:101C2000884600BFE088401C86B20EB1206910B91A
:101C30000420BDE8F08106F00F0000286FD1206974
:101C4000401C2061E06828B920680089B04266DC49
:101C50000420EEE720688078401E00EA1610002875
:101C60005DD1E168206800F030FD0546012D01D806
:101C70000220DEE7681C08B90120DAE720688069E5
:101C8000A84246D8B8F1000F01D10420D1E7E1689D
:101C90002068FFF790FE05460DB90720C9E7012D22
:101CA00001D10220C5E7681C08B90120C1E7002165
:101CB000206800F079FE08B10120BAE7216801F13F
:101CC00030004FF40072002100F064FE29462068C5
:101CD000FFF764FE2168C862002710E00120216838
:101CE00008710021206800F05FFE08B10120A0E724
:101CF0002068C06A401C2168C862781CC7B220688E
:101D00008078B842EADC2068C06AC01B2168C862DB
:101D100000BFE56029462068FFF740FE2061E680AD
:101D20002068303006F00F0100EB411060610020A8
:101D30007FE72DE9F041044604251BE02169206876
:101D400000F032FE054605B117E067693E780EB92E
:101D5000042512E0E52E06D02E2E04D0F87A00F0ED
:101D6000080000B909E000212046FFF756FF0546AC
:101D700005B102E020690028E0D100BF0DB10020CC
:101D800020612846BDE8F0812DE9F041044600219C
:101D9000204600F046F80546ADB900BF216920682D
:101DA00000F002FE054605B10CE060690678E52EFC
:101DB00000D006B906E001212046FFF72EFF0546B8
:101DC000002DEBD000BF9DB92169206800F0ECFD2B
:101DD00005466DB9676920220021384600F0DAFD1A
:101DE0000B223846A16900F0C8FD01202168087166
:101DF0002846BDE8F08170B50446E188204600F031
:101E000010F805465DB92169206800F0CDFD054652
:101E10002DB9E52061690870012021680871284604
:101E200070BD2DE9F04104460E46E680A568012DFF
:101E300003D020688069A84202D80220BDE8F08162
:101E40002DB920680078032801D12068456A65B95A
:101E5000E56020680089B04201DC0220EEE72068DE
:101E6000406A00EB1610206120E0206880780701AE
:101E700012E02946206800F028FC0546681C08B9D5
:101E80000120DBE7022D03D320688069A84201D836
:101E90000220D3E7F01B86B2BE42EADAE5602946AB
:101EA0002068FFF77BFD00EB1610206120683030C2
:101EB00006F00F0100EB411060610020BEE770B535
:101EC00005464DB9FEF794FC04460CB1012000E034
:101ED00000200646304670BD0120FCE72DE9F041A8
:101EE00006460D4614464FF00108002E35D1052D4B
:101EF00028D2DFE805F00310061A24004FF000088E
:101F000020E0FEF771FC2080208808B1012000E06D
:101F10000020804616E0FEF7B1FC2060206808B182
:101F2000012000E0002080460CE0FEF75DFC206010
:101F3000206808B1012000E00020804602E04FF058
:101F4000000800BF00BFB8F1000F01D0012000E081
:101F5000002007463846BDE8F0810420FBE72DE964
:101F6000F04706460F4614461D46AEB907E0214627
:101F70003846FEF75FFC681EC5B204F50074002DFC
:101F8000F5D1A846B8F1000F01D0012000E00020F3
:101F900081464846BDE8F0870420FBE770B505465A
:101FA0004DB9FEF771FC04460CB1012000E00020A1
:101FB0000646304670BD0120FCE72DE9F047064695
:101FC0000F4614461D46AEB907E021463846FEF7D7
:101FD00065FC681EC5B204F50074002DF5D1A84655
:101FE000B8F1000F01D0012000E0002081464846F2
:101FF000BDE8F0870420FBE770B506460C461546A1
:10200000342005490860084646608460C56003497D
:1020100000F0D2FB70BD0000A0020010B40200105E
:102020002DE9F04303460024481C861A002011E0E5
:1020300015184FF00F09A9EBE50705F0070C13F889
:10204000079049FA0CF909F0010808FA00F949EA81
:102050000404401CB042EBDB2046BDE8F08370B5C1
:102060000446204600F01CFA05460DB90020206009
:10207000284670BD0246012A01DB0B207047074845
:1020800050F822300BB10020187009B10020087000
:10209000024840F822100020F0E700004000001045
:1020A0002DE9F7438AB0054616461DB909200DB043
:1020B000BDE8F0830020286006F01F0626F001022C
:1020C00003A90BA8FFF79EFA0746002F7ED1CDF893
:1020D00024D003A80B9900F0AFFA0746089C0FB96B
:1020E00004B9062706F01C00002851D04FB1042F78
:1020F00003D103A8FFF748FE074646F00806089CF0
:1021000009E0E07A00F0110008B1072703E006F0CB
:10211000040000B10827002F39D106F0080000287C
:1021200035D000F045FB804684F80E804FEA182138
:10213000E1734FEA184121744FEA1861617400207D
:10214000E072207700216177A177E177214603983B
:1021500000F03CFB81460021204600F017FE0120E4
:1021600003990871B9F1000F11D00398D0F82C80B1
:102170004946039800F061FD074647B9A9F10100FF
:102180000399C8604146039800F00EFC07460EE034
:102190006FB9E07A00F0100008B1042707E006F0FC
:1021A000020020B1E07A00F0010000B1072747B932
:1021B00006F0080008B146F020060398C06AE861FE
:1021C0002C621FB9AE712146039800E015E000F0C3
:1021D000FDFA2861E07F0106A07F41EA0041607FAF
:1021E00041EA0020217F0843E8600020A860A86140
:1021F000039828600398C088A880384657E72DE9DF
:10220000FF4F83B0044615469A46DDF810B0002013
:10221000CAF80000204600F02DFE0290029818B186
:10222000029807B0BDE8F08FA07900F0800008B1F7
:102230000220F6E7A07900F0010008B90720F0E7D6
:10224000D4E90210401A00900098854200D9009D00
:1022500097E02089C0F3080000286AD120688078C0
:10226000401EA16800EA512000F0FF09B9F1000FFB
:102270001DD1A06810B92069019004E0616920684F
:1022800000F023FA01900198022805D2A07940F0CD
:102290008000A0710220C4E70198401C28B9A079F1
:1022A00040F08000A0710120BBE701986061616986
:1022B0002068FFF773FB06462EB9A07940F0800036
:1022C000A0710220ADE74E444FEA5528B8F1000F47
:1022D0002ED009EB080021688978884203D920684C
:1022E0008078A0EB090808F0FF032168487832469F
:1022F0005946FFF734FE28B1A07940F08000A07164
:1023000001208EE72068007978B12068C06A801BC0
:1023100040450AD2226802F13001D26A921B0BEBCF
:1023200042204FF4007200F028FB4FEA48271EE0DD
:10233000A6612089C0F30800C0F50077AF4200D93C
:102340002F46A169206800F02FFB28B1A07940F04A
:102350008000A071012064E7206830302289C2F338
:10236000080281183A46584600F007FB00BFBB44FC
:10237000A0683844A060DAF800003844CAF80000C9
:10238000ED1B002D7FF465AF00204AE72DE9F341F6
:1023900098B00F46012211A918A8FFF733F9044697
:1023A000002C79D111980A9001A8179011A81899BA
:1023B00000F042F9044600BF002C6DD1169808B910
:1023C000042469E0169800F10B01152204A800F01E
:1023D000D4FA1C2211A90AA800F0CFFA39460AA89B
:1023E00000F02AF9044604B90824042C54D10AA8A0
:1023F000FFF7CAFC0446002C4ED10F9D13220DF1AD
:10240000120105F10D0000F0B8FA9DF8100040F03F
:102410002000E8720120119908710C9913988842E4
:1024200030D0E87A00F0100060B32946119800F02F
:10243000CDF9804641461198FFF7B0FA06460EB92D
:1024400002241FE03146119800F0AEFA04461198BC
:1024500000F15005B4B968782E2813D1119800788E
:10246000032806D111990C98496A884201D10020AD
:1024700000E00C9806463146284600F087FC012013
:102480001199087144B911A8FFF7B5FC04461CB9AD
:10249000119800F083FC044620461AB0BDE8F08194
:1024A0002DE9F0410446204600F0E4FC0746002FE9
:1024B00038D1A07900F02000002833D0E1692068ED
:1024C00000F072FA0746002F2CD1256AE87A40F016
:1024D0002000E872207B2877A089010A6977E068EC
:1024E000010CA977E068010EE9772846216900F020
:1024F0004DFC00F05DF90646AE75310AE975310C08
:102500002976310E69760020A8740021E974A0793B
:1025100020F02000A071012021680871206800F0DF
:102520003DFC07463846BDE8F08171B591B0012207
:102530000AA911A8FFF766F80446002C46D1CDF889
:1025400040D00AA8119900F077F8044600BF002C8B
:102550003CD10F9E0EB9062404E0F07A00F0010091
:1025600000B1072431460A9800F030F90546E4B975
:10257000F07A00F01000C0B1022D01D2022414E064
:102580001C220AA903A800F0F8F90595022103A866
:10259000FFF747FC044644B903A8FFF7CAFB04460B
:1025A00004B90724042C00D100247CB90AA8FFF741
:1025B00022FC044654B925B129460A9800F03DFB97
:1025C00004461CB90A9800F0E9FB0446204612B004
:1025D00070BD70B506460D4672B6042427E0102C77
:1025E00003D2200300F6FF7005E0A4F10E0047F6C9
:1025F000FF7101EBC030A84218D9102C01D2200382
:1026000002E0A4F10E00C003A84209D132462146DF
:10261000204600F063FA324621462046FFF7ECFCE4
:1026200032462146204600F059FA02E0641C1D2C77
:10263000D5D900BF62B670BD2DE9F34104460198BB
:1026400000782F2803D0019800785C2802D10198E7
:10265000401C01900020A06001980078202807D23B
:1026600000212046FFF7DDFB05460020606129E0E0
:1026700000BF01A92046FFF703FA054605B120E097
:102680002046FFF79CFA0546A069C67A45B1042D9D
:1026900000D016E000BF06F0040000B9052510E0E8
:1026A00006F0040000B10CE06769F87A00F0100051
:1026B00008B9052505E03946206800F087F8A060D4
:1026C000D7E700BF2846BDE8FC812DE9F04105466B
:1026D0000C46022C02D3A869A04202D80120BDE812
:1026E000F0812878012804D002282CD003285AD160
:1026F0003DE0274607EB5707286A00EB572128469D
:1027000000F052F900B14EE0C7F3080105F13000C6
:1027100010F801807F1C286A00EB5721284600F042
:1027200043F900B13FE0C7F3080105F13000405C18
:1027300048EA002804F0010010B14FEA1810CEE773
:10274000C8F30B00CBE7286A00EB1421284600F001
:102750002BF900B127E040F2FF1000EA440105F137
:1027600030000E183078717840EA0120B7E7286A07
:1027700000EBD411284600F017F900B113E040F245
:10278000FF1000EA840105F130000E18F078000611
:10279000B17840EA0140717840EA0120317808437D
:1027A00020F070409BE700BF4FF0FF3097E700003C
:1027B00000487047A1A16DB970B504460D46024EA0
:1027C00029462046B04770BDF11FFF1F10B50246D5
:1027D0008C7ECB7E44EA03201378032B05D10C7D3D
:1027E0004B7D44EA032340EA034010BD08B5FEF7E1
:1027F000C0FD4C20FDF790FD4C20FDF793FD3220ED
:10280000FDF78AFD3220FDF794FD3320FDF784FDAE
:102810003320FDF78EFD3420FDF77EFD3420FDF7DB
:1028200088FD3520FDF778FD3520FDF782FD9C20E1
:10283000FDF772FD9C20FDF77CFD4420FDF76CFD4B
:102840004420FDF776FD00214420FDF7A8FD45203A
:10285000FDF762FD4520FDF76CFD00214520FDF7E9
:102860009EFD4620FDF758FD4620FDF762FD002144
:102870004620FDF794FD4720FDF74EFD4720FDF76C
:1028800058FD00214720FDF78AFD1F2000F062FA65
:102890002D4A02210320FEF70EFC00BF00BF4FF4BB
:1028A0008050009002E00098401E009000980028A0
:1028B000F9D10623072208210920FEF713F8FDF7B6
:1028C00097FF08B9FEF73AFE00BFFEF75AFD20B1A8
:1028D000FEF746FD00BF00BF00BF00BFFEF7B4FB20
:1028E0000028FBD100BF00BF00BFFEF7ADFB0028F2
:1028F000FBD1FEF7BDFB00F091F8134A0221032043
:10290000FEF7D9FB00BF00BF00BFFEF79DFB00280C
:10291000FBD14FF48020009002E00098401E009010
:1029200000980028F9D100BFBFF34F8F0748006817
:1029300000F4E06006490843001D04490860BFF345
:102940004F8F00BF00BFFEE780841E000CED00E04B
:102950000000FA05F0B503461C460D46002000BFF6
:10296000161EA2F1010207D014F8017B15F801CB65
:10297000A7EB0C06301EF3D0F0BD70B503460C4635
:1029800003E014F8015B03F8015B151EA2F10102DC
:10299000F7D170BD30B5034601E003F8011B141EEA
:1029A000A2F10102F9D130BD2DE9F04104460D46F6
:1029B000E66AAE422FD0207908B360780123324610
:1029C00004F13001FFF7F9FA10B10120BDE8F08100
:1029D00000202071D4E907100844B0420FD9E778ED
:1029E0000AE0E069064460780123324604F13001D0
:1029F000FFF7E3FA781EC7B2012FF2DC00BF55B132
:102A0000607801232A4604F13001FFF7A8FA08B1E3
:102A10000120DBE7E5620020D8E7000010B54FF4A5
:102A200080442948FFF7BCF828482040284908601E
:102A3000012028490860AA2026498039C1F88C0065
:102A4000552024490C31086000BF22480830006836
:102A500000F000700028F8D11E490860AA201D4926
:102A60008039C1F88C0055201A490C31086000BF2C
:102A700018480830006800F080700028F8D1154828
:102A800080380068C0F30B0012498039086008469E
:102A9000006840F4A040086000200E4984310860BE
:102AA0000C498039C1F80C010B4908604FF47A7069
:102AB000FFF776F8BFF35F8FBFF34F8FBFF36F8FD2
:102AC0002046FDF755FB10BDC0C62D0080FFFF1F3F
:102AD00008ED00E080C00F40A0C10F4070B5064671
:102AE0000C46154632200549086008464660846059
:102AF000C5600349FFF760FE70BD0000A002001032
:102B0000B40200102DE9F04705460E461746022E86
:102B100002D3A869B04202D84FF002088AE02878B0
:102B2000012804D0022841D003287DD154E0B146C9
:102B300009EB5909286A00EB59212846FFF734FFB1
:102B40008046B8F1000F00D071E0C9F3080105F12B
:102B500030000C1806F0010020B1F9B2207861F3C2
:102B60001F1000E03846207009F10109012028718A
:102B7000286A00EB59212846FFF716FF8046B8F176
:102B8000000F00D053E0C9F3080105F130000C1824
:102B900006F0010010B1C7F3071005E0207800F03F
:102BA000F000C7F303210843207040E0286A00EBDF
:102BB00016212846FFF7F8FE8046B8F1000F00D036
:102BC00035E040F2FF1000EA460105F130000C1834
:102BD0002770380A60702AE0286A00EBD611284670
:102BE000FFF7E2FE8046B8F1000F00D01FE040F290
:102BF000FF1000EA860105F130000C18E0780006AD
:102C0000A17840EA0140617840EA01202178084338
:102C100000F0704007432770380A6070380CA070CD
:102C2000380EE07003E0FFE74FF0020800BF00BF7E
:102C3000012028714046BDE8F0872DE9F0410446A7
:102C40000E46022E02D3A069B04201D8022725E029
:102C500000271FE031462046FFF737FD054605B93E
:102C60001BE0012D01D1022717E0681C08B90127DC
:102C700013E0002231462046FFF744FF074607B124
:102C80000BE02069401C20B12069401C206101201C
:102C900060712E46A069B042DCD800BF3846BDE85E
:102CA000F081000030B50B460949012A07D151F8DF
:102CB000204001259D402C4341F8204006E051F87A
:102CC000204001259D40AC4341F8204030BD00002C
:102CD00068C00240F0B504460B4615461946600030
:102CE0000B4A102901D31039401C52F820604FEADA
:102CF000410C032707FA0CF7BE4342F8206052F854
:102D000020604F0005FA07F73E4342F82060F0BD0F
:102D100000C00240F0B504460B4615461946600057
:102D20000B4A102901D31039401C52F820604FEA99
:102D3000410C032707FA0CF7BE4342F8206052F813
:102D400020604F0005FA07F73E4342F82060F0BDCF
:102D500040C0024010B5044604F001013220FDF7E6
:102D60001EFB04F002013320FDF719FB04F00401FF
:102D70003420FDF714FB04F008013520FDF70FFBAC
:102D800004F010019C20FDF70AFB10BD81760B0AB0
:102D9000C3760A0C02750B0E4375704770B5044676
:102DA00000212046FFF700FE0546002D59D120786E
:102DB00003284FD1607900284CD00020E0624FF406
:102DC0000072002104F13000FFF7E4FD552184F882
:102DD0002E12AA2184F82F12522084F8300052219A
:102DE0003120015561213220015541213320015507
:102DF000722184F8141284F81512412184F81612F5
:102E0000612184F81712217C84F81812208A010AA3
:102E100084F819122069010C84F81A122069010E35
:102E200084F81B12217B84F81C12A089010A84F803
:102E30001D12E068010C84F81E12E068010E84F88F
:102E40001F126078012304F130016269FFF7B5F8C1
:102E500000206071607800221146FFF73FF800B152
:102E60000125284670BD02468A4201D3501A704798
:102E7000881AFCE770B505462C46206838B12068F2
:102E8000007820B12068C088A188884201D009203C
:102E900070BD21684878FFF781F800F0010008B1A3
:102EA0000320F5E70020F3E72DE9F04104460F4643
:102EB00015461E4672B6332006490860084647602C
:102EC0008560C66004610449FFF776FC62B6BDE820
:102ED000F0810000A0020010B40200102DE9F041C2
:102EE00006460F4615462348006808B92148066083
:102EF000002406E0385D2049096821441F4A5054E7
:102F0000641CAC42F6D31C48006828441A49086087
:102F100008460068B0F5007F2AD1194800684FF4D0
:102F20007A71B0FBF1F8134801684046FFF751FB96
:102F30001448006818B113480068BDE8F0811048D3
:102F400000684FF47A71B0FBF1F84FF400730B4A4C
:102F5000084801684046FFF7A7FF0A48006810B11B
:102F600008480068E9E70020034908600149086053
:102F70000020E2E7080000100C000010C80200105A
:102F800048000010B4020010809A90418E418F805A
:102F90004545454949498E8F9092924F994F5555D5
:102FA00059999A9B9C9D9E9F41494F55A5A5A6A7BF
:102FB000A8A9AAABAC21AEAFB0B1B2B3B4B5B6B7A5
:102FC000B8B9BABBBCBDBEBFC0C1C2C3C4C5C6C709
:102FD000C8C9CACBCCCDCECFD0D1D2D3D4D5D6D7F9
:102FE000D8D9DADBDCDDDEDFE0E1E2E3E4E5E6E7E9
:102FF000E8E9EAEBECEDEEEFF0F1F2F3F4F5F6F7D9
:10300000F8F9FAFBFCFDFEFF6669726D7761726587
:103010002E62696E000000006669726D77617265EC
:103020002E637572000000004830000000000010A0
:103030004C00000008010000943000004C0000101B
:10304000EC110000240100000830000018300000DE
:103050000000000000000000000000000000000070
:103060000000000000000000000000000000000060
:103070000000000000000000000000000000000050
:103080000000000000000000000000000000000040
:10309000000E2707FFFFFFFFFFFFFFFFFFFFFFFF00
:1030A000FFFFFFFFFFFFFFFFFFFFFFFFFFFFFFFF30
:1030B000FFFFFFFFFFFFFFFFFFFFFFFFFFFFFFFF20
:1030C000FFFFFFFFFFFFFFFFFFFFFFFFFFFFFFFF10
:1030D000FFFFFFFFFFFFFFFFFFFFFFFFFFFFFFFF00
:10400000008000103DB40100F54400000D450000A3
:10401000254500003D45000055450000000000001A
:104020000000000000000000000000007FB401005C
:104030006D4500000000000083B40100D9BE0100FE
:10404000854500001D460100755F0100B1BC0100FF
:10405000CDC001007949000095B4010097B401007A
:1040600099B401009BB401009DB401009FB401000C
:10407000A1B40100A3B40100A5B40100A7B40100DC
:10408000A9B40100ABB40100ADB40100AFB40100AC
:10409000B1B40100B3B40100B5B40100B7B401007C
:1040A000FDB10100BBB40100BDB40100BFB401000B
:1040B000C1B40100C3B40100C5B40100C7B401001C
:1040C000C9B40100CBB40100CDB401000348044BD6
:1040D000834202D0034B03B1184770470804001015
:1040E000080400100000000005480649091A89105C
:1040F00001EBD171491002D0034B03B1184770474F
:1041000008040010080400100000000010B5064C60
:10411000237843B9FFF7DAFF044B13B10448AFF338
:1041200000800123237010BD08040010000000006F
:10413000085A020008B5054B1BB105490548AFF305
:104140000080BDE80840FFF7CFBF00BF00000000BF
:104150000C040010085A0200154B002B08BF134B2B
:104160009D46A3F5803A00218B460F461348144A1A
:10417000121A1AF055FC0F4B002B00D098470E4B2B
:10418000002B00D098470020002104000D000D48AE
:10419000002802D00C48AFF300801AF0F1FB200099
:1041A000290017F0B9FE1AF0D7FB00BF0000080085
:1041B0000080001000000000000000000804001053
:1041C000C13000100000000000000000024B01465A
:1041D0001B680248184700BF2001001000C00040C3
:1041E00010B5441E14F8010F10B1FFF7EFFFF9E707
:1041F00010BD000038B505460948FFF7F1FF082457
:104200002B0F092BD8B294BF30303730013CFFF769
:10421000DDFF14F0FF044FEA0515F1D138BD00BFF2
:10422000DD25020030B585B06C460A22254640B136
:10423000B0FBF2F302FB1300303004F8010B184618
:10424000F5E714F8010DFFF7C1FFAC42F9D105B055
:1042500030BD000038B5054603680C4601330360E5
:104260002320FFF7B3FF286838BB3020FFF7AEFFED
:104270001548FFF7B5FF154B6068002808BF1846C2
:10428000FFF7AEFF4020FFF7A1FF2068FFF7B2FF66
:104290002B20FFF79BFFA0682368C01A10D13020A5
:1042A000FFF794FF0A48FFF79BFFA068FFF7A2FF04
:1042B0000A20FFF78BFF012038BDFFF7B3FFD7E7D8
:1042C000FFF7B0FFEEE700BF35250200D025020062
:1042D000D82502007FB51646044668480D46FFF70C
:1042E0007FFF6748FFF77CFF664B53F82600FFF718
:1042F00077FF0A20FFF76AFF6348FFF771FF206826
:10430000FFF778FF0A20FFF761FF6048FFF768FFBB
:104310006068FFF76FFF0A20FFF758FF5C48FFF760
:104320005FFFA068FFF766FF0A20FFF74FFF5948BD
:10433000FFF756FFE068FFF75DFF0A20FFF746FF33
:104340005548FFF74DFF2069FFF754FF0A20FFF79C
:104350003DFF5248FFF744FF6069FFF74BFF0A201B
:10436000FFF734FF4E48FFF73BFFA069FFF742FF1E
:104370000A20FFF72BFF4B48FFF732FFE069FFF7FA
:1043800039FF0A20FFF722FF4748FFF729FF474B75
:104390001868FFF72FFF0A20FFF718FF4448FFF7C0
:1043A0001FFF444B1868FFF725FF0A20FFF70EFF99
:1043B0004148FFF715FF414B1868FFF71BFF0A2024
:1043C000FFF704FF3E48FFF70BFF3E4B1868FFF76F
:1043D00011FF0A20FFF7FAFE3B48FFF701FF3B4BB6
:1043E0001868FFF707FF0A20FFF7F0FE3848FFF7CD
:1043F000F7FE384B1868FFF7FDFE0A20FFF7E6FED0
:104400003548FFF7EDFE28460025FFF7F3FE0A20AA
:10441000FFF7DCFE3148FFF7E3FE2046FFF7EAFE38
:104420000A20FFF7D3FE04F12003CDE902336369CC
:104430002B480493A3692B4C43F001030593FFF72A
:10444000CFFE294901AA02A8019501F09FFE4FF075
:10445000FF32264BC3F88020C3F88420A56000F00B
:10446000F3FC00F0E5FCBFF34F8FE268204B02F451
:10447000E0621343E360BFF34F8FFEE708250200BD
:1044800029250200E025020031250200392502001D
:10449000412502004925020051250200592502004C
:1044A00061250200692502007125020028ED00E067
:1044B000792502002CED00E08125020030ED00E0BE
:1044C000892502003CED00E09125020034ED00E07A
:1044D0009925020038ED00E0A1250200A92502007F
:1044E000B125020000ED00E0C025020000E100E07F
:1044F0000400FA051EF0040F0CBFEFF30880EFF381
:10450000098071464FF00002FFF7E4BE1EF0040F71
:104510000CBFEFF30880EFF3098071464FF0010202
:10452000FFF7D8BE1EF0040F0CBFEFF30880EFF3C7
:10453000098071464FF00202FFF7CCBE1EF0040F57
:104540000CBFEFF30880EFF3098071464FF00302D0
:10455000FFF7C0BE1EF0040F0CBFEFF30880EFF3AF
:10456000098071464FF00402FFF7B4BE1EF0040F3D
:104570000CBFEFF30880EFF3098071464FF005029E
:10458000FFF7A8BE1EF0040F0CBFEFF30880EFF397
:10459000098071464FF00602FFF79CBE4138C3B256
:1045A000192B2AD8164A1068D84010F0010025D0DF
:1045B000144AD25CFAB1144B19688B188A5CA2F1C8
:1045C0003001092906D92E2A08D15A78303A092A09
:1045D00088BF00230D4A0120136070472D2A01D0A7
:1045E0002B2A08D15A78A2F130010929F2D92E2AB2
:1045F00001D19A78EAE70023ECE70020704700BF7A
:104600002C1600100B1600100416001030160010A7
:1046100013B504201AF0D8F9044620B11AF0DCF9D9
:104620000DF10700001B02B010BD000010B50C46D4
:10463000FFF7B4FF38B1124B186820B10A220021ED
:104640001BF090FE00B280B2B0F5FA7F13D2642363
:10465000B0FBF3F203FB120080B21F280BD840EA34
:10466000421004B29F2C08DC064B33F9143001339E
:1046700008BF4FF0FF34204610BD4FF0FF34FAE77B
:104680003016001026260200014608B5064814F030
:10469000F2F81021044814F0F3F80028F9D1024888
:1046A00014F0EBF8C0B208BD0080084010B5044615
:1046B000124A134B8EB0CDE907231249124B13480F
:1046C000CDE90913124BCDE90B03124B01A80D9351
:1046D00014F0BCF8062CA8BF06240EAB03EB840430
:1046E00054F81C3C01A90693049B0B4843F00203B9
:1046F000049314F05DF80EB010BD00BF15287F00C4
:104700000B943F0005CA1F0040420F0020A1070084
:1047100090D0030048E801000080084013B5204B0A
:10472000204C0093002368468DF8043014F002F802
:104730006369684613F4004F4FF4004314BFA3614C
:10474000E361236843F4004323604FF48853ADF8DA
:10475000003013F0EFFF2368684623F40033236032
:104760004FF49053ADF8003013F0E4FF63690D4A45
:1047700013F4802F4FF4802314BFA361E361136807
:10478000022143F4802313602A2013F0F9FE002055
:10479000FFF78CFF0121044814F064F802B010BD4B
:1047A000000F020000C0092000800840FFF76CBF26
:1047B000FF20FFF769BF38B504464518AC4205D065
:1047C000FF20FFF761FF04F8010BF7E738BD38B5AC
:1047D0000C46FFF759FF651E04F2FF1415F8010F90
:1047E000FFF752FFA542F9D138BD00000C4B002164
:1047F000D3F8C42042F00202C3F8C4204FF0402294
:10480000D160D3F8C42042F00402C3F8C420054BA1
:10481000054A1B68B3FBF2F3044A013BD3607047BF
:1048200000C00F404801001000093D00008000401A
:1048300010B510B1012813D010BD4FF04022032352
:1048400053610E4B1B689B08B3FBF1F3936101238B
:10485000536008220A4B83F8012302221A60EBE717
:10486000084C0323B4FBF1F4074A53619461506090
:104870001022034B83F802230422EFE748010010C3
:1048800000E100E040420F0000800040012070473E
:104890007047D0E92730181A00F07F0070470023D6
:1048A000C0E927337047002238B504461146006935
:1048B00014F0A2F9D4E9272393420EBF4FF0FF353D
:1048C0001B191D7F20690122002114F095F928464B
:1048D00038BD002238B504461146006914F08CF941
:1048E000D4E9272393420FBF4FF0FF35E21801337D
:1048F000157F18BF03F07F03206918BFC4F8A030EC
:104900000122002114F078F9284638BD0EB4F0B524
:10491000C2B047AB53F8042B07464FF4807102A88E
:1049200001931BF0DFFD431EFE2B05460AD800262F
:1049300002AC3B6814F8011B9B6838460136984767
:10494000B542F6D1284642B0BDE8F04003B070470A
:10495000012307B51A468DF8071000690DF107010C
:1049600014F004F903B05DF804FB10B50446B0215F
:1049700018F00BFE204610BD37B51E4C206914F010
:104980005CF900F00E00062825460BD1206914F0D2
:1049900051F910F09E0F03D0A061206914F0E3F8E4
:1049A00003B030BD04281DD1002301220DF1070101
:1049B000286914F0FDF80028F2D0D5F89C30D5F81D
:1049C000A0105A1C02F07F028A42E9D09DF807200D
:1049D0002B441A77D5F89C30013303F07F03C5F8D8
:1049E0009C30E1E70C2802BFA36943F48073A36104
:1049F000D6E700BF2404001000224FF47A71064B62
:104A0000C3E901210549C3E92722C3E90412C3E927
:104A10002A22034A1A6070472404001000C0004094
:104A2000702702000EB42DE9F34309AB53F8042BB1
:104A300005464FF480711F4801931BF053FD431E40
:104A4000FE2B064634D817F073F90024DFF8648093
:104A5000DFF86490871D95F820311BB317F068F9D3
:104A6000C01B00281EDAD5F81831D5F81C210133F7
:104A700003F07F0393421FBFD5F8182118F80410E4
:104A8000521982F898100EBF0023C5F8183101237F
:104A90001C44D9F80030013302D1822016F00AFB01
:104AA000A642D8D8204602B0BDE8F04303B0704714
:104AB0000024F7E7D40400103801001014F086BD7C
:104AC00015F066B830B5436987B08B4204460D4691
:104AD0003DD00369414A93423BD14FF48133029365
:104AE000002302A88DF80C3013F024FE032302A843
:104AF0008DF8093013F01EFE04A814F007F804A97D
:104B00002069049513F0C2FE01A814F0B7F801A9BA
:104B1000206914F099F80121206914F0B6F80122F7
:104B20000021206914F068F801220221206914F0A4
:104B300063F82369294A934234D11822284B83F819
:104B4000052320221A600023C4E92733656107B0DA
:104B500030BD244A934209D1234B02A8029300237B
:104B60008DF80C3013F0E6FD1023C0E71F4A934286
:104B70000AD14FF485330293002302A88DF80C303C
:104B800013F0D8FD0B23B2E7194A9342B4D14FF486
:104B900080330293002302A88DF80C3013F0CAFD75
:104BA0000123A4E70F4A934205D118220C4B83F846
:104BB00006234022C6E70D4A934205D11822084B2E
:104BC00083F807238022BDE7094A9342BBD118220C
:104BD000034B83F808234FF48072B3E700C0004012
:104BE00000E100E000000140000F010000800940EA
:104BF00000C009404FF4803238B5354B354D9A61CD
:104C00005969C8034CBF9A61DA611A6842F480326C
:104C10001A6040229A61596949064CBF9A61DA616B
:104C20002B4A136843F04003136016F04BF9002041
:104C300016F0D8F84FF47A7017F088F8012016F0C3
:104C4000D1F8002014F040FF17F072F800F5FA6474
:104C50002B7853B917F06CF8001B002805DA3220C6
:104C600017F074F814F094FFF2E71B4C4FF4E131A5
:104C70001A48FFF727FF94F90020194DA2B17F2AA7
:104C800012D016F09BFC2A68164B1749B2FBF3F3BF
:104C9000164A002818BF0A4615491048FFF736FE85
:104CA000BDE83840FFF7A2BD16F088FC2A680D4B1E
:104CB0000D49B2FBF3F30D4A002818BF0A460C4910
:104CC0000C48FFF7AFFE94F90030002BE8D0D8E78E
:104CD00000C00920682D0010D1000010240400102D
:104CE0004801001040420F0098270200A027020050
:104CF000A8270200082E001007B572B61D2101ABCF
:104D00006A46084613F0FAFC62B688B9FF22114BD6
:104D10000130B0F5805F03F8012BF9D108220E4B6A
:104D20001A60002201200D4B1A7003B05DF804FBDD
:104D3000009B094A1B0B136006491B0303F5F02275
:104D400003F5F22312F8010B9A4201F8010BF9D195
:104D5000E7E700BFD4050010D4150010D8150010E7
:104D600070B5124E3578E5B1114C2268013A002A2F
:104D7000226007DA72B61D21084613F09FFC62B666
:104D80000723236072B620684FF48052000309495C
:104D900000F5F02013F06EFC62B620B930702846A2
:104DA00070BD0125FBE70025F9E700BFD81500100D
:104DB000D4150010D4050010F8B505460024DFF81E
:104DC00030C0944206D00F5D28680CEB04063754BF
:104DD0000134F6E70120054A1070A2B2184601F02E
:104DE00065FD2B6800201C442C60F8BDD815001010
:104DF000D4050010F8B515469DF8182004465AB998
:104E000001680A4A1144AAB2184601F04FFD22680F
:104E100000202A442260F8BD0022044FAA42F2D0AA
:104E20002068BE18305C88540132F7E7D4050010C2
:104E300008B50020012113F08FFFBDE808400148AC
:104E400013F0B8BF00093D0013F0A4BF08B513F07C
:104E50009BFF10F0010F0CBF0120082008BD13F0CC
:104E6000A0BF0000034B1B68013302D1822016F063
:104E700021B970473801001070B590F82031044610
:104E80000E46FBB116F054FF851DD4F81831D4F846
:104E90001C21013303F07F03934208D116F048FF31
:104EA000401B00280BDBFFF7DDFF012070BDD4F8AD
:104EB0001821224482F89860C4F81831F3E794F876
:104EC00020310BB90020F1E7FFF7CCFFDDE7000050
:104ED000054B23F0030353F8040C00F07F4000F16E
:104EE0008073584258417047D14E0000002200F1B3
:104EF0006803426008309842FBD1704770B50446A1
:104F000016461D46FFF7F2FF049B0422A36600230A
:104F1000C4E96016E266C4E91E52C4F8783170BD77
:104F20007FB5002321F0010206460293039201930C
:104F3000FFF7CEFFB0B121F00304D6F88031251F72
:104F40005B6869462846984760B1009B23F0FF02E2
:104F5000B2F17F4F0FD113F0FE0F0CD0DBB2ED1A80
:104F6000CDE90145D6F8803101A91B68D6F8840146
:104F7000984704B070BD2C46DFE75368803013F0CB
:104F80007F0318BF0123126801F0B8B873B5054656
:104F90000DF1070380300E46144601F087F840B14A
:104FA0009DF80730002B14BF02230023636002B07A
:104FB00070BDD5F8803121465B683046984700289F
:104FC000F5D00223F2E700002DE9F04F04464FF43C
:104FD000FA7889B0D4F8803107A95B68A06F984748
:104FE000002800F00D82A36F13F0030240F00B8243
:104FF000E16E490600F00782E16F4F0600F0038280
:10500000079DAE4825F00F01814224D105F00F0520
:1050100004EBC5035A68560604D16FF0090009B0C5
:10502000BDE8F08F54F83510A1675B68012B07D0FD
:1050300054F83530D8070BD5204600F0F1F9EEE7EB
:105040002046FFF76DFF0028F2D16FF00600E6E77B
:10505000A36F043B0FE005F07F41B1F16A4F1ED111
:10506000AD0025F07C4222F00302A90148BF42F0C6
:105070007C4204331344A367A36F002B00F0CC8160
:10508000043308F1FF38A36720461FFA88F801F0BF
:105090005FF8B8F1000F9DD16FF00500BFE725F470
:1050A0008101874B21F4E041994205D1C5F30335D5
:1050B00004EBC5056A60DFE7824B834A2B409342CD
:1050C000DAD005F07C43B3F1604F40F0FF80C5F3C8
:1050D0004753EA0203F00F0C05D41B0703D5BCF1BC
:1050E0000B0F40F28981A8B2C5F30341C5F3033227
:1050F000C0F30B0315F000755FFA83FE34D004276C
:105100001B125E00C6F120030EFA03F34EFA06F6F8
:105110003343012645F21F0E06FA0CF616EA0E0F6F
:105120007ED116F4204E40F0938016F0E00F40F050
:105130008A800F290AD1A66F002D40F08C8010F0D4
:10514000100F14BF0C2708273E44A667BCF10F0FB1
:1051500000F28880DFE80CF08195999DA186868613
:1051600086868686A584A9AEC7060EF00F0EC3F309
:10517000411617D507054FEA232300F147810F2B6E
:1051800000F0448104EBC307022E54F833307F68EB
:105190002AD0032E3AD0012E0ED154F83E6026FAC2
:1051A00003F30DE0022E4FEAE3134FF0040718D08B
:1051B000032E2AD0012E10D054F83E6006FA03F3D5
:1051C00017F07F07A5D004EBCE0EDEF8046016F0D2
:1051D0007F0718BF46F080079BE7002BDDD1202317
:1051E000DBE7002B08BF202354F83E60002ED6DA00
:1051F0001F2B4FF0FF3A0FD8C3F120090AFA09F923
:1052000026FA03F349EA0303DAE73BB103F01F068A
:1052100054F83E30F341D3E75346D1E71F46CFE77A
:1052200004EBC106D6F804E0D6001EF07F0F26443A
:1052300002D017F07F0F02D10027776079E74EEA9E
:105240000707FFB2F9E704EBC206C6F804E070E70F
:1052500004EBC206F5E7082776E754F831603340DF
:1052600044F832300F2A3FF407AF0F297FF404AF20
:1052700015BB10F0100F0CBF08220C22A36F9B1A55
:10528000F9E654F831607340EAE754F83160F31AF4
:10529000E6E754F831609B1BE2E754F83160334491
:1052A000DEE754F831603343DAE754F8316026EA38
:1052B0000303D5E7DB43D3E70822DFE710FF2FE145
:1052C00000000FE100F0B0FF00F020E105F07E43A8
:1052D000B3F1684F40F09080C5F3034904EBC90077
:1052E00005F08073406800936E0205F4001302938A
:1052F00005F4000205F48013A9B254F8397000F0E7
:105300007F0B05D5002B3FF488AE28047FF585AED2
:10531000B9F10F0F3FF481AE00293FF47EAE002AB1
:1053200014BF04226FF00302019215BF0122FF2275
:105330004FF0000A4FF00F0A0392AAB20492049AA7
:1053400042FA0AF2D60721D5009A0AB1019A174407
:10535000002B41D04FEACA06BBF1000F38D02644DB
:105360003246394620460593FFF710FE002850D0FC
:105370007268059B12F07F0F04D0B9F10D0F01D1B7
:1053800001227260009A0AB9019A1744039A924462
:105390005FFA8AF20F2A4FFA82FAD0D9029A0AB13A
:1053A00044F83970002B3FF467AE28047FF564AEF3
:1053B000E36F59063FF431AEA16F2046FFF7B0FD11
:1053C00000283FF442AEA36FDA077FF542AE33E622
:1053D0002644C6F804B0D5E7BBF1000FD2D004EBE9
:1053E000CA02A16E20460593FFF7C7FD059B002862
:1053F000C8D16FF0120012E62046FFF777FD3BE6BA
:105400006FF00C000BE66FF0070008E66FF00A0083
:1054100005E66FF00F0002E66FF00B00FFE500BF3E
:105420002DE9F04F002504464FF4FA792E46DFF8B7
:105430007C8885B0A06FD4F880310DF10A019B689B
:1054400020F001009847002800F02084A06FC207D8
:1054500004D46FF0070005B0BDE8F08FE36E5B0683
:10546000F7D0E36F5F06F4D0BDF80A1021F4FF53C4
:1054700023F01F03B3F5604F40F0E68111F4C05FE5
:1054800000F029820230D4F88031A0679B6803A91C
:1054900020F001009847002800F0F8834EF62D0315
:1054A000BDF80A7027F4C8729A425ED1F906BDF8B9
:1054B0000CA044D5A34600274AFA07F2D20721D50B
:1054C0005A46A16E2046FFF761FD10B96FF00F003C
:1054D000C1E7DBF8042053062CD001230F2FCBF8B3
:1054E00004300CD1A16FC807B3D52046FFF718FDD3
:1054F00010B96FF00600AEE7A26F023AA267A26E83
:105500000432A2660137102F0BF1080BD4D1A36F20
:10551000002B00F0BF83023309F1FF39A367204657
:105520001FFA89F900F014FEB9F1000F82D16FF073
:10553000050090E70F2FE2D16FF009008BE70F27EE
:105540004AFA07F3D90703D417F1FF37F8D2DEE799
:10555000A16E04EBC7020439A1662046FFF70DFDDA
:105560000028F1D16FF0120075E74FF64D039F420E
:1055700013D140F60453BDF80C20C2F30B0199423D
:105580003DD1A16E12130439A16604EBC20220467C
:10559000FFF7F3FC0028BAD1E4E74FF65D039F4222
:1055A0002DD140F60432BDF80C30C3F30B0191420B
:1055B00025D11F1304EBC70A5246A16E2046FFF700
:1055C000E5FC002882D0DAF804305A0614D0012312
:1055D0000F2FCAF804300BD1A16FCB077FF539AF7D
:1055E0002046FFF79DFC002883D0A36F023BA367F2
:1055F000A36E0433A3668AE70F2FF9D19CE74EF61A
:10560000D00327F00F0189B299422FD1BDF80C20A9
:1056100022F01F03B3F5704F40F0348307F00F07FB
:105620000F2F7FF474AFA06FD70620F00100D4F8DD
:10563000803100F102000ED59B680DF10E019847F4
:1056400010B96FF0100006E7BDF80E20A36F03EB52
:105650004203A3675BE7DB680DF10E01984710B9C1
:105660006FF01100F7E69DF80E20EFE707EA080358
:10567000B3F5704F5BD1BDF80C2002F45043B3F585
:10568000104F26D1C2F30A03B80A5B00C7F309071B
:1056900043EA073380EA5237FF4380EAD222D243FB
:1056A00000F0010143EA016307F0010743EAC75331
:1056B00002F0010243EA825309B143F07E43A26F34
:1056C00013449A1C0433F61A75427541A2671E46AC
:1056D0001DE7B3F5504F3FF41AAFB3F5004F41D17A
:1056E000B90A07F03F00C2F30A077F0047EA003714
:1056F00081EA5230C04381EAD222D24301F0010351
:1057000047EA035700F0010047EAC04702F00102F0
:1057100047EA82421BB16FEAC2226FEAD222002D11
:105720003FF4F5AEA36F02331A44A267EFE64FF6DB
:105730005F0227F08003934214D1A16FBDF80C30B3
:1057400021F003011A0B0431DBB238064CBFC91833
:10575000C91A04EBC2022046FFF718FC00287FF4A8
:10576000D6AEB3E64FF6D003994216D107F00F0735
:1057700004EBC703BDF80C105B680A0B13F07F0F36
:105780004FEAC20202D122445360C0E654F83730D7
:10579000C1F30B0122441944DDE74FF6500399424F
:1057A00040F07082BDF80CA01AF4006F28D007F00A
:1057B0000F0704EBC7035B684FEA1A3213F07F0F41
:1057C0004FEAC202DFD01AF4007B18BF5FFA8AFBEF
:1057D00054F8371018BF4FEA4B0B8B441AF4806F04
:1057E00018BF594622442046FFF7D0FB00283FF45B
:1057F0006DAE1AF4807F3FF48AAE44F837B086E687
:105800001AF47C6F40F03E8207F00F0704EBC703E9
:105810005B684FEA1A32590613D00AF00F0104EB05
:10582000C1004068400600F0398254F83110CAF3D4
:10583000011A01FA0AFA54F8371004EBC202514473
:1058400089E704EBC2029FE7002B44D101F4C05268
:10585000B2F5C05F3FD0C1F3C1200128C1F384136A
:10586000C1F3C20201F007012CD0E0B102287FF49D
:105870004EAE04EBC20054F8322022FA03F71204B1
:1058800041BF4FF0FF32C3F1200302FA03F33B4361
:1058900054BF44F8317044F83130436804EBC1011F
:1058A00043F08003F7E004EBC20754F8322004EB26
:1058B000C10002FA03F344F831307B6843F08003FF
:1058C000436024E604EBC20754F8322004EBC10025
:1058D00022FA03F3EFE701EA0802B2F5C05F31D123
:1058E000C1F3C20201F0070011F4806F04EBC2079C
:1058F00054F832C001F4007EC1F382134FEAC002B3
:1059000016D104EBC30154F83330BEF1000F00D0C0
:105910005B42634444F830307B682244580605D02B
:105920004968490602D043F080032DE700232BE7A6
:10593000BEF1000F00D05B42634444F83030224493
:105940007B68F0E7B3F5005F20D1C1F3C122022AE2
:10595000C1F30223C9B20AD0032A11D0002A7FF46E
:10596000D6AD04EBC30244F8331004230CE754F81B
:10597000330004EBC302014444F833105368D2E708
:1059800054F8330004EBC302411AF5E721F47F73A6
:1059900023F00303B3F5804F40F08580C1F38312F9
:1059A000C1F3C20301F007010F2A10D8DFE802F0AB
:1059B0000821272D330F0F470F4D0F0F51565C63F2
:1059C00054F8310054F83370384044F83100012065
:1059D00000FA02F247F29F00024250D112F4024054
:1059E0005BD112F0600F3FF492AD04EBC10148604F
:1059F0008DE554F8310054F833707840E5E754F8F9
:105A0000310054F83370B840DFE754F8310054F8EF
:105A10003370F840D9E754F8317054F83300002F50
:105A200027FA00F044F83100D1DA54F83370C7F1A6
:105A3000200C4FF0FF3707FA0CF73843C5E754F84E
:105A4000310054F83370F841BFE754F83300404256
:105A5000BBE754F8310054F83370EEE754F8317076
:105A600054F833007843B0E754F8337054F83100F9
:105A700020EA0700A9E754F83300C043A5E704EB88
:105A8000C1014A68570605D004EBC3035B6858069A
:105A90007FF406AF00234B6039E504EBC30304EB4E
:105AA000C1015B68FCE6B3F5884F3FD1C1F3C20387
:105AB000C1F30120C1F3C01701F00702490648BF36
:105AC00008330FB10832D2B2022810D0032813D005
:105AD00000287FF41CAD54F8321004EBC30754F8CF
:105AE000333004EBC2000B4444F83230E5E654F89E
:105AF000333044F832300AE50E2B4FEAC30704D0A6
:105B0000E3195B68012B7FF417ADE1592046FFF7DD
:105B100007FA00283FF4EDACE359DF07A36701D58E
:105B2000023B96E52046FFF74FFA94E4B2F5904F1A
:105B30000AD1C1F3022220F00300C9B200EB8101B7
:105B400004EBC202043106E601F47F43B3F5304FA3
:105B500008D18B0003F0FC02A36E08064CBF9B1A11
:105B60009B1847E501F47643B3F5344F65D101F452
:105B700080735FFA81FB09053FD527464FF0000A85
:105B80004BFA0AF2D20712D53A46A16E204601938B
:105B9000FFF7FCF900283FF499AC7A68019B12F0FA
:105BA0007F0F1CBF01227A60A26E0432A2660AF146
:105BB000010ABAF1080F07F10807E1D1002B3FF401
:105BC000A6AC04F17802A16E2046FFF7DFF90028A9
:105BD0003FF47CACE36F5B063FF4AEACA16FCF0744
:105BE0007FF537AC2046FFF79BF900283FF481ACE6
:105BF000A36E0433A366A36F92E743B907274BFA5A
:105C000007F3D8070ED417F1FF37F8D27FE4A16E5F
:105C100004F170020439A1662046FFF7AEF90028AE
:105C2000ECD19FE4A16E04EBC7020439A1662046C3
:105C3000FFF7A3F90028E6D194E401F47043B3F52B
:105C4000504F0BD1CBB2090648BF63F0FF03002DC4
:105C50003FF45DAC023000EB4303FAE4B2F5604F71
:105C600010D1C1F30A034A0554BF194643EA08019B
:105C700000EB4100831C0430A367331A5D425D4191
:105C8000064644E42046FFF731F940E46FF00D008A
:105C9000FFF7E1BB6FF00B00FFF7DDBB0F2A7FF4CE
:105CA000D0AD04F1780254F8371054E500F8FFFF46
:105CB0004B6C13B50C461BB94FF0FF3002B010BD52
:105CC000002301A901930368206C98470028F3D0B2
:105CD000A36C0198DA00013BD040002BC0B2A36452
:105CE00004DA236C043323640323A364636C013B51
:105CF0006364E3E710B50C490C4AA1F108039A422A
:105D00000FD28B1ADB1001335B1002EBC30452F885
:105D10003330234423F00043834294BF224621467C
:105D2000EBE7104610BD00BF145A02000C5A0200E7
:105D30002DE9F04F002405460E46A1469BB0009287
:105D4000EF68012F76D93846FFF7D4FF27F0010717
:105D5000EF600697036807AF184420F00048CDF8BD
:105D600010807368CDF81C903946A8F1040098475C
:105D700058B1079800F07F43B3F17F4F11BF002067
:105D800020F07F40A8EB000004380590336804A998
:105D90000098984700284DD0E868FFF7ABFF4368AC
:105DA000012B00F05B81041D002BA4BFE41824F03C
:105DB000004400214C22384618F032FE1794CDF8EA
:105DC0000C90736803A92046984710B96FF00F0430
:105DD00030E0039B03F07F42B2F1004F1ED103235A
:105DE0001893022319932B6806F104080E936B682D
:105DF0001493AB68CDE9153939464046FFF758FF93
:105E00000446013000F08F8014F0C00316D1149BBB
:105E1000A400E4B204331C441494EDE7B2F1014F42
:105E200006D19B0B03F47F73023318930123D9E748
:105E30004FF0FF3420461BB0BDE8F08F402B06D159
:105E4000149BA4000433E4B21B1B1493D4E704F0A6
:105E5000F003802B27D139464046FFF729FF240263
:105E60000443B4F5004F00F0FB80BB46149AC4F322
:105E70000B0ABAF1000F12D01AF0010F0AD0104627
:105E8000736803A901929847019A00289ED0039B4A
:105E9000CBF810304FEA5A0A0BF1040BE9E7A105E1
:105EA000AAD51492A8E7902B0CD124F002039D2BC5
:105EB00000F0BD801AAB04F00F0403EB840454F827
:105EC0004C3CC2E7A02B28D14FF0040B04F0070292
:105ED000DDF850A05A44736803A9504601929847D0
:105EE000019A00283FF472AF039B0AF1040047F8BF
:105EF0002B300BF1010B5A450DD2230709D57368DE
:105F000003A9984700283FF461AF039B0AF10800FA
:105F10001593149070E78246DDE7B02C3AD1169BBA
:105F20002BB9159B1693169B0BB9159B1693169BB5
:105F300003F07042B2F1704F1FD10E9C13F00C0FA2
:105F400024F00704149440F0858003F0F003E02B64
:105F500014BF083C503C736803A9204698470028AA
:105F60003FF434AF039B03A91693201F736898472F
:105F700000283FF42BAF039B1593169BEA689A42C7
:105F80006CD00E9A01242A60149A6A60159AC5E9A9
:105F90000223D5E6B12C1DD139464046149CFFF7AB
:105FA00087FEBB468246BAF1000F3FF435AF1AF0C8
:105FB000010F0AD0736803A92046984700283FF4D0
:105FC00005AF039B0434CBF800304FEA5A0A0BF1BB
:105FD000040BE8E7B22C09D139464046FFF768FECA
:105FE000149B800000F5017003442EE7B32C03D00E
:105FF000A4F1C803012B1AD8DDF850A0736803A9D7
:106000005046984700283FF4E1AE039AC82C1592F9
:106010000AF1040307D142F480321592159A42F432
:106020000032159211E7B32C3FF40FAFF6E704F0FE
:10603000F803B82B04D0D02B08D06FF00404F9E695
:1060400004F0070444F080041594D5E64FF40033BF
:106050001593D1E6EFF3098418347CE70024E9E6D0
:106060006FF00104E6E61F22B1FBF2F2C2EB42122E
:106070008A1A92B2134630B500EBD30494F8F84074
:1060800003F007052C41E40704D500EB8304E46F1B
:106090008C4201D118B230BD01339BB2202B28BFF6
:1060A00000239342E8D14FF0FF30F4E72DE9F843A5
:1060B0000546884691461F46FFF7D5FF041E1BDBA9
:1060C00005EBE40393F8F81004F00706314111F0F2
:1060D00001000FD005EB8402D26F42450CD10120A4
:1060E00055F82420C9F8002093F8FC20324102F032
:1060F00001023A70BDE8F8830020FBE7F8B50646D8
:1061000017461D46FFF7AFFF00281FDB012206EBF5
:106110008003D96706EBE00400F0070194F8F8303B
:1061200002FA01F149B20B4384F8F83094F9FC30DB
:1061300035B1194346F8207084F8FC102846F8BDA4
:1061400023EA010184F8FC101546F7E70025F5E77E
:1061500000234FF0010CF0B5856E00F1FC0600EB5A
:10616000E30494F8782103F0070142FA01F7FF07EE
:1061700008D556F82370AF423EBF0CFA01F18A43AE
:1061800084F8782101331F2BE9D1F0BD30B50D4BD8
:106190000D4DE5B05B1B102B044603DDFFF7C8FD7A
:1061A00065B030BD43680093C36802A8FEF7A6FE41
:1061B000E36802A8DB0702D5FFF732F9F0E7FEF744
:1061C00003FFEDE7145A02000C5A020000F170437D
:1061D000B3F5004F02D3B0F5002F03D203680120BE
:1061E0000B6070470020704700F17043B3F5004F1B
:1061F00002D3B0F5002F03D2038801200B80704733
:106200000020704700F17043B3F5004F02D3B0F5A2
:10621000002F03D2037801200B70704700207047D5
:106220000023064A32F9021B884205D00133DBB253
:10623000252BF7D100207047012070470829020064
:1062400008B500F05DFABDE80840014800F030BA3A
:106250000128020008B50CF0C1FE0CF033FFFE204F
:106260000CF09AF8BDE808400CF074B80222084B14
:106270004FF40011DA614FF48072DA61054AD1619E
:106280004FF48051D9614FF48063D361704700BFF0
:1062900040C0092000C009204FF48052034B9A618E
:1062A0004FF4806243F8282C704700BF40C009209B
:1062B00002234FF480700749074A8B611378886185
:1062C0004FF4001023F0070341F8280C1370FFF778
:1062D000E3BF00BF40C00920B819001008B543F65D
:1062E000972140F2E933013B07D000BF00BF00BF58
:1062F0000A46013A00BFFCD1F5E715F015FD40F262
:10630000E93341F66901013B07D000BF00BF00BF80
:106310000A46013A00BFFCD1F5E70EF0A5FCFEF7F6
:106320009EFDFCE7044608B50EF09EFC00F0E8F97F
:10633000054800F0BDF90548002C18BF20460AF0BA
:1063400053FAFFF7CBFF00BF192802001028020004
:1063500038B5344B05461B78032B01D804F092F86E
:1063600015F0E6FC304B04461B6813B32F4A126845
:106370001344C31A002B1CDB00F0C2F92C4B2D4C2C
:1063800019682D4800F0C2F994F9002042B17F2A23
:1063900006D00A212948FEF7DBFA0020FFF7C2FFEA
:1063A0000A212748FEF768FD94F90030002BF4D04D
:1063B000EFE7244B1B683BB1234A1178234A12783C
:1063C00091420BD0194B1C60214D2B68E31A002B16
:1063D00003DB64340CF084FD2C6038BD1D4AF5B934
:1063E000124909680B44E31A002B18DB1378002BC1
:1063F000EAD10123137002234FF480701649174A23
:106400008B61137888614FF4001023F0070341F883
:10641000280C1370FFF740FF09F07AFED4E7002341
:106420001370D1E792180010E4150010F415001055
:1064300004160010D1000010C72702002404001029
:10644000082E0010CC000010ED1F0010EE1F0010F1
:10645000DC150010E015001040C00920B81900102C
:1064600008B50AF073F802F023FB0020FFF770FF75
:106470000EF07AFB0AF0F8F9FEF722FB034B1B78CB
:106480001BB9BDE808400FF0B1B808BDE815001011
:1064900008B5124C124E134D11F0C0F823789B062C
:1064A0000FD510F07FFF03F0F9FBFFF7D3FE0AF0E2
:1064B00055FA0EF0D9FB002108460EF09BF9002397
:1064C00033702B78032B01D803F0DCFF03F0DEFDE3
:1064D0000BF002FEFFF7C4FFDEE700BF202C001028
:1064E000D00000109218001038B5FEF783FB4FF46F
:1064F000E1315848FEF7E6FA15F01AFC564D00F562
:106500007A7495F8203123B915F012FC001B00288D
:10651000F7DB15F00DFC514800F0CAF800F0EAF87E
:10652000FEF794FCC507044602D54D4800F0C0F8BC
:10653000A00702D54B4800F0BBF8610702D54A48D6
:1065400000F0B6F8220702D5484800F0B1F8A306DB
:1065500002D5474800F0ACF8464CFEF775FC4648BB
:1065600000F0A6F894F90030002B57D07F2B55D0BF
:1065700020213848FEF7ECF9404800F099F894F9EA
:106580000030002B53D07F2B51D00A213148FEF729
:10659000DFF900F0AFF83A4800F08AF8394800F027
:1065A00087F8394800F084F800F0A4F8374800F084
:1065B0007FF800F09FF8FEF72BF80146344800F012
:1065C000C5F84FF4B061334800F0C0F894F90030DA
:1065D000002B35D07F2B33D00A211E48FEF7B8F9A7
:1065E00003F052FB0BF008F92B4B2C4A07CA83E847
:1065F00007000BF0AFFE2A480FF05EFA0AF0D4F95C
:106600000BF042FD0DF05CFD09F0EAFE0AF0F8F82F
:1066100004F020FDBDE83840FEF70ABC20210E48FA
:10662000FEF72AFC94F90030002BA5D0A0E70A2140
:106630000948FEF721FC94F90030002BA9D0A4E70B
:106640000A210548FEF718FC94F90030002BC7D04A
:10665000C2E700BF24040010082E00109449020075
:10666000392802004228020053280200652802004F
:1066700076280200D1000010872802008E28020030
:106680009C280200AC280200B7280200CB28020098
:10669000E2280200F1280200C8190010E8190010D1
:1066A0001B280010014810F00DBE00BFE1150010BE
:1066B000F8B505460C4E0D4F15F8014B94B196F9FF
:1066C000003033B17F2B04D021460948FEF740F952
:1066D000F2E721463846FEF7CFFB96F90030002B53
:1066E000EAD0F1E7F8BD00BFD1000010082E00107D
:1066F000240400100148FFF7DBBF00BF5929020046
:106700000148FFF7D5BF00BF5229020038B50C4C35
:106710000D46FFF7CDFF94F900203AB17F2A05D04E
:106720002946BDE83840074815F069B829460648AB
:1067300015F065F894F90030002BF1D138BD00BF99
:10674000D100001024040010082E001038B50D4CA4
:106750000D46FFF7ADFF94F9002042B17F2A06D025
:106760002946BDE838400A22074815F0A2B80A2297
:106770002946064815F09DF894F90030002BEFD11A
:1067800038BD00BFD100001024040010082E0010F6
:1067900038B50D4C0D46FFF78BFF94F9002042B140
:1067A0007F2A06D02946BDE838400A22074815F05E
:1067B0005DB80A222946064815F058F894F90030C9
:1067C000002BEFD138BD00BFD10000102404001011
:1067D000082E001037B5124C0D46FFF769FF94F9EB
:1067E00000206AB17F2A0BD0284615F0D3FE022381
:1067F000024600930B480B4615F038F903B030BD44
:10680000284615F0C7FE02230246009306480B46B1
:1068100015F02CF994F90030002BEFD0E4E700BF1D
:10682000D100001024040010082E001038B50D4CC3
:106830000D46FFF73DFF94F9002042B17F2A06D0B4
:106840002946BDE838400A22074815F048B80A2210
:106850002946064815F043F894F90030002BEFD193
:1068600038BD00BFD100001024040010082E001015
:10687000034A044B002814BF10461846FFF718BF00
:10688000162F02003E2E020010B50446322C06D907
:106890003220323C15F05AFA0EF066F9F6E720463F
:1068A00015F054FABDE810400EF05EB970B541F233
:1068B00021050A44914212D011F8014B038883EA62
:1068C000042308241EB25B00002E9BB204F1FF34A7
:1068D000B8BF6B4014F0FF04F4D10380EAE770BD49
:1068E000632881BF6423B0FBF3F33033DBB298BF7E
:1068F0002023092888BF0A2110B588BFB0FBF1F416
:106900000A4A13718ABFB4FBF1F3202301FB13433E
:106910004FF00A0184BF3033DBB25371B0FBF1F3A7
:1069200001FB130030309071014810BDEB150010D1
:10693000EF150010002810B526DB632827DD64233F
:106940000A2190FBF3F2B2FBF1F301FB1323303386
:10695000DBB20928C4BF0A21B0FBF1F40D4A137160
:10696000CABFB4FBF1F3202301FB13434FF00A012C
:10697000C4BF3033DBB25371B0FBF1F301FB130042
:1069800030309071044810BD40422D23E1E72023B0
:10699000DFE700BFEB150010EF1500100A2290FB97
:1069A000F2F110B502FB11040F4B303409289C7131
:1069B00016DD8CB2B4FBF2F102FB1141632801F148
:1069C000300159710EDD642190FBF1F080B2B0FB13
:1069D000F2F102FB11021846303200F8042F10BD0C
:1069E000981DFCE7581DFAE7EB15001038B5046850
:1069F0002549204616F02CFA00210546204616F0BF
